:060000000A128A1100291A
:10000800F000030EF1000B1918200B181020710EC8
:100018008300F00E700E090003138312061C850A74
:10002800861C85030B10080003138312F630810029
:100038000B11F20A7208643C031D2428F201870A96
:020048000800AE
:10020000272108210F211E214121031383120729D1
:10021000031383160F140F178F120F120800031306
:1002200083168112811101158114011403138312A5
:1002300003138312F63081000B1108000313831699
:10024000161496140313831206080B1008000317E4
:100250008316880189010313831606148614031379
:1002600083168501870103138316811303138316F5
:1002700095011514951403138312850187018601D6
:0E02800008008B178B150B108B160B11080046
:04400E00D420FF3F7C
:00000001FF
